:03000000020BEB05
:0C0BEB00787FE4F6D8FD75810C020A83C7
:100B6F00EF1FAA0670011E4A600BE4FDEDD39478C7
:050B7F0050EE0D80F7AF
:010B8400224E
:0B0BF700EF1FAC0670011E4C70F622D0
:100A8300120B55E50CB45705120B9680F6E50CB422
:100A93005305120BA780ECE50CB44105120BB8808B
:100AA300E2E50CB44405120BC980D8E50CB4540537
:100AB300120B8580CEE50CB4580AE50CB458C41269
:100AC30009D380F6E50CB442BAE50CB442B5120A78
:030AD3002C80F67E
:100B8500D280D281D282D283D284D285D286D287B4
:010B9500223D
:100B9600D280C281C282D283D284C285C286D287E3
:010BA600222C
:100BA700C280D281D282C283C284D285D286C287D2
:010BB700221B
:100BB800D280C281C282D283C284D285D286C287C1
:010BC800220A
:100BC900C280D281D282C283D284C285C286D287B0
:010BD90022F9
:100B5500758921439850758DFD439802E4F58CF510
:0A0B65008AD2ACD2AFD28ED2AF22FA
:03002300020C02CA
:090C0200309805C29885990C3266
:1009D30020900920910620920330930C30900F3021
:1009E300910C309209309306120B96020B852090DE
:1009F3000B309108309205309302800C30900C201C
:100A03009109309206309303020BB830900B30916A
:100A130008209205309302800C30900C30910930FD
:090A23009206209303120BC92274
:100BDA00C2A2D2A200000000000000000000C2A2CF
:010BEA0022E8
:100B1600AF8CEFFEAD8A7C00E42DFFEC3EFEAD0708
:100B2600FCE412090B7B8E7AE3798A783F1208007F
:100B3600120944AD07AC06E412090B7B967A437999
:0E0B46008B783C120800120944E4F58CF58A05
:010B5400227E
:100AD600E4F50AF50BFFFE120BDA20A30B0FBF009D
:100AE600010EBE03F5BFE8F2E4FEFFD28C30A30B85
:100AF6000FBF00010EBE03F5BFE8F2C28C120B1643
:0F0B06008E0A8F0B7F0A7E00120B6FAE0AAF0BA9
:010B150022BD
:100A2C00120B96120AD6D3EF941EEE940050471276
:100A3C000BA77FA07E0F120BF7120BB87FA07E0FB7
:100A4C00120BF7120B85120AD68E088F09120BC9DE
:100A5C007F407E1F120BF7120B85120AD6C3E509D5
:100A6C009FE5089E4010120BB87F407E1F120BF7BB
:060A7C00120B85120B961F
:010A82002251
:10080000EC4D6011E8497017ED33EC3304600DE4F2
:10081000FCFFFEFD22E933E8330470F80209B01250
:10082000097B58046009E4CC248150062850090251
:1008300009BA2840030209B7C0E0EB4A7044B98006
:1008400006D0E0FB0209A6EF4E701CBD8008EBFF4E
:10085000EAFEE9FD80EBE98DF0A4FEE5F00208E98F
:10086000E9CDF9EAFEEBFFEF89F0A4FCE5F0CE89D3
:10087000F0A42EFFE435F0CD89F0A42DFEE435F090
:100880008067EF4E7005BD80D780C3EF8BF0A4ACBE
:10089000F0EE8BF0A42CFCE435F0F8EF8AF0A42CF9
:1008A000E5F038FCE433CB8DF0A42CFCE5F03BF80C
:1008B000EE8AF0A42CFCE5F038F8E433CF89F0A4FC
:1008C0002CFCE5F038CF3400CE89F0A42FFFE5F002
:1008D0003EFEE433C98DF0A42EFEE5F039CD8AF05A
:1008E000A42FFFE5F03EFEE43DFD33D0E0FB5007D2
:1008F0000BBB000F0209BAEC2CFCEF33FFEE33FE0A
:06090000ED33FD02099237
:1009060075F020800E75F010800575F0087D007E6C
:10091600007F003392D530D5031209C5EC33401061
:10092600EF33FFEE33FEED33FDEC33FCD5F0ED2275
:0E093600E5F0247EA2D513CC92E7CDCEFF22B1
:10094400EDD2E7CD33EC3392D524814006E4FFFEAB
:10095400FDFC22FCE4CFCECDCC24E0501174FF800A
:10096400EDC3CC13CCCD13CDCE13CECF13CF0470A7
:07097400F030D5DE0209C5D9
:10097B00E9D2E7C933E833F892D5EDD2E7CD33ECC2
:07098B0033FC5002B2D5223B
:10099200EC30E7100FBF000C0EBE00080DBD0004C6
:1009A2000BEB6014A2D5EB13FCED92E7FD2274FF72
:1009B200FCFDFEFF22E480F8A2D574FF13FC7D80CB
:0309C200E480EFDF
:0E09C500C3E49FFFE49EFEE49DFDE49CFC2243
:00000001FF
