:03000000020BA848
:0C0BA800787FE4F6D8FD75810C020BC8C4
:100B2C00EF1FAA0670011E4A600BE4FDEDD394780A
:050B3C0050EE0D80F7F2
:010B41002291
:0B0BB400EF1FAC0670011E4C70F62213
:080BC800120B121209D380FB8D
:100B4200D280D281D282D283D284D285D286D287F7
:010B52002280
:100B5300D280C281C282D283D284C285C286D28726
:010B6300226F
:100B6400C280D281D282C283C284D285D286C28715
:010B7400225E
:100B7500D280C281C282D283C284D285D286C28704
:010B8500224D
:100B8600C280D281D282C283D284C285C286D287F3
:010B9600223C
:100B1200758921439850758DFD439802E4F58CF553
:0A0B22008AD2ACD2AFD28ED2AF223D
:03002300020BBF0E
:090BBF00309805C29885990C32AA
:1009D30030900930910630920320930C20900C2024
:1009E3009109209206209303020B5320900E30911D
:1009F3000B309208309305120B75803530900E2022
:100A0300910B309208309305120B75800F309012C2
:100A130030910F20920C309309120B867FB87E0B16
:100A2300801330901330911030920D20930A120BE3
:090A3300867FA07E0F120BB42295
:100B9700C2A2D2A200000000000000000000C2A212
:010BA700222B
:100AD300AF8CEFFEAD8A7C00E42DFFEC3EFEAD074C
:100AE300FCE412090B7B8E7AE3798A783F120800C3
:100AF300120944AD07AC06E412090B7B967A4379DD
:0E0B03008B783C120800120944E4F58CF58A48
:010B110022C1
:100A9300E4F508F509FFFE120B9720A30B0FBF0027
:100AA300010EBE03F5BFE8F2E4FEFFD28C30A30BC8
:100AB3000FBF00010EBE03F5BFE8F2C28C120AD3CA
:0F0AC3008E088F097F0A7E00120B2CAE08AF0938
:010AD2002201
:100A3C00120B53120A93D3EF941EEE9400504712EC
:100A4C000B647FA07E0F120BB4120B757FA07E0F70
:100A5C00120BB4120B42120A938E0A8F0B120B86D6
:100A6C007F407E1F120BB4120B42120A93C3E50B8C
:100A7C009FE50A9E4010120B757F407E1F120BB42F
:060A8C00120B42120B5395
:010A92002241
:10080000EC4D6011E8497017ED33EC3304600DE4F2
:10081000FCFFFEFD22E933E8330470F80209B01250
:10082000097B58046009E4CC248150062850090251
:1008300009BA2840030209B7C0E0EB4A7044B98006
:1008400006D0E0FB0209A6EF4E701CBD8008EBFF4E
:10085000EAFEE9FD80EBE98DF0A4FEE5F00208E98F
:10086000E9CDF9EAFEEBFFEF89F0A4FCE5F0CE89D3
:10087000F0A42EFFE435F0CD89F0A42DFEE435F090
:100880008067EF4E7005BD80D780C3EF8BF0A4ACBE
:10089000F0EE8BF0A42CFCE435F0F8EF8AF0A42CF9
:1008A000E5F038FCE433CB8DF0A42CFCE5F03BF80C
:1008B000EE8AF0A42CFCE5F038F8E433CF89F0A4FC
:1008C0002CFCE5F038CF3400CE89F0A42FFFE5F002
:1008D0003EFEE433C98DF0A42EFEE5F039CD8AF05A
:1008E000A42FFFE5F03EFEE43DFD33D0E0FB5007D2
:1008F0000BBB000F0209BAEC2CFCEF33FFEE33FE0A
:06090000ED33FD02099237
:1009060075F020800E75F010800575F0087D007E6C
:10091600007F003392D530D5031209C5EC33401061
:10092600EF33FFEE33FEED33FDEC33FCD5F0ED2275
:0E093600E5F0247EA2D513CC92E7CDCEFF22B1
:10094400EDD2E7CD33EC3392D524814006E4FFFEAB
:10095400FDFC22FCE4CFCECDCC24E0501174FF800A
:10096400EDC3CC13CCCD13CDCE13CECF13CF0470A7
:07097400F030D5DE0209C5D9
:10097B00E9D2E7C933E833F892D5EDD2E7CD33ECC2
:07098B0033FC5002B2D5223B
:10099200EC30E7100FBF000C0EBE00080DBD0004C6
:1009A2000BEB6014A2D5EB13FCED92E7FD2274FF72
:1009B200FCFDFEFF22E480F8A2D574FF13FC7D80CB
:0309C200E480EFDF
:0E09C500C3E49FFFE49EFEE49DFDE49CFC2243
:00000001FF
