:0300000002092AC8
:0C092A00787FE4F6D8FD758108020863B0
:100863001208BDE508B457081208D51208E680F34C
:10087300E508B453081208D51208F780E6E508B472
:1008830041081208D512090880D9E508B4440812B2
:1008930008D512091980CCE508B454051208D5808F
:1008A300C2E508B458BD7508201208D5120800E542
:0A08B30008645860F71208D580A908
:1008D500D280D281D282D283D284D285D286D28767
:0108E50022F0
:1008E600D280C281C282D283D284C285C286D28796
:0108F60022DF
:1008F700C280D281D282C283C284D285D286C28785
:0109070022CD
:10090800D280C281C282D283C284D285D286C28773
:0109180022BC
:10091900C280D281D282C283D284C285C286D28762
:0109290022AB
:1008BD00758920759850758DFD758BFD439802D205
:0808CD00ACD2AFD28ED2AF22F3
:0300230002093699
:06093600C2988599083209
:1008000020900920910620920330930C30900E30F6
:10081000910B3092083093051208E6804220900E2A
:1008200030910B30920830930512090880313090D6
:100830000E20910B30920830930512090880203069
:10084000900E30910B209208309305120919800FF9
:1008500030900F30910C3092092093061209191232
:0308600008D52296
:00000001FF
