:03000000020C02ED
:0C0C0200787FE4F6D8FD75810C0209D360
:100B8600EF1FAA0670011E4A600BE4FDEDD39478B0
:050B960050EE0D80F798
:010B9B002237
:0B0C0E00EF1FAC0670011E4C70F622B8
:1009D300120B6CE50CB45705120BAD80F6E50CB4A5
:1009E3005305120BBE80ECE50CB44105120BCF800E
:1009F300E2E50CB44405120BE080D8E50CB45405D1
:100A0300120B9C80CEE50CB4580AE50CB458C41202
:100A13000A3D80F6E50CB4420AE50CB442B5120A6D
:100A23009680F6E50CB44C06D2B6D2B780A5E50C99
:0A0A33006443709FC2B6C2B78099F9
:100B9C00D280D281D282D283D284D285D286D2879D
:010BAC002226
:100BAD00D280C281C282D283D284C285C286D287CC
:010BBD002215
:100BBE00C280D281D282C283C284D285D286C287BB
:010BCE002204
:100BCF00D280C281C282D283C284D285D286C287AA
:010BDF0022F3
:100BE000C280D281D282C283D284C285C286D28799
:010BF00022E2
:100B6C00758921439850758DFD439802E4F58CF5F9
:0A0B7C008AD2ACD2AFD28ED2AF22E3
:03002300020C19B3
:090C1900309805C29885990C324F
:100A3D0020900920910620920330930C30900F30B6
:100A4D00910C309209309306120BAD020B9C209045
:100A5D000B309108309205309302800C30900C20B1
:100A6D009109309206309303020BCF30900B3091E9
:100A7D0008209205309302800C30900C3091093093
:090A8D009206209303120BE022F3
:100BF100C2A2D2A200000000000000000000C2A2B8
:010C010022D0
:100B2D00AF8CEFFEAD8A7C00E42DFFEC3EFEAD07F1
:100B3D00FCE412090B7B8E7AE3798A783F12080068
:100B4D00120944AD07AC06E412090B7B967A437982
:0E0B5D008B783C120800120944E4F58CF58AEE
:010B6B002267
:100AED00E4F50AF50BFFFE120BF120A30B0FBF006F
:100AFD00010EBE03F5BFE8F2E4FEFFD28C30A30B6E
:100B0D000FBF00010EBE03F5BFE8F2C28C120B2D14
:0F0B1D008E0A8F0B7F0A7E00120B86AE0AAF0B7B
:010B2C0022A6
:100A9600120BAD120AEDD3EF941EEE9400504712DE
:100AA6000BBE7FA07E0F120C0E120BCF7FA07E0F07
:100AB600120C0E120B9C120AED8E088F09120BE017
:100AC6007F407E1F120C0E120B9C120AEDC3E50925
:100AD6009FE5089E4010120BCF7F407E1F120C0E22
:060AE600120B9C120BAD87
:010AEC0022E7
:10080000EC4D6011E8497017ED33EC3304600DE4F2
:10081000FCFFFEFD22E933E8330470F80209B01250
:10082000097B58046009E4CC248150062850090251
:1008300009BA2840030209B7C0E0EB4A7044B98006
:1008400006D0E0FB0209A6EF4E701CBD8008EBFF4E
:10085000EAFEE9FD80EBE98DF0A4FEE5F00208E98F
:10086000E9CDF9EAFEEBFFEF89F0A4FCE5F0CE89D3
:10087000F0A42EFFE435F0CD89F0A42DFEE435F090
:100880008067EF4E7005BD80D780C3EF8BF0A4ACBE
:10089000F0EE8BF0A42CFCE435F0F8EF8AF0A42CF9
:1008A000E5F038FCE433CB8DF0A42CFCE5F03BF80C
:1008B000EE8AF0A42CFCE5F038F8E433CF89F0A4FC
:1008C0002CFCE5F038CF3400CE89F0A42FFFE5F002
:1008D0003EFEE433C98DF0A42EFEE5F039CD8AF05A
:1008E000A42FFFE5F03EFEE43DFD33D0E0FB5007D2
:1008F0000BBB000F0209BAEC2CFCEF33FFEE33FE0A
:06090000ED33FD02099237
:1009060075F020800E75F010800575F0087D007E6C
:10091600007F003392D530D5031209C5EC33401061
:10092600EF33FFEE33FEED33FDEC33FCD5F0ED2275
:0E093600E5F0247EA2D513CC92E7CDCEFF22B1
:10094400EDD2E7CD33EC3392D524814006E4FFFEAB
:10095400FDFC22FCE4CFCECDCC24E0501174FF800A
:10096400EDC3CC13CCCD13CDCE13CECF13CF0470A7
:07097400F030D5DE0209C5D9
:10097B00E9D2E7C933E833F892D5EDD2E7CD33ECC2
:07098B0033FC5002B2D5223B
:10099200EC30E7100FBF000C0EBE00080DBD0004C6
:1009A2000BEB6014A2D5EB13FCED92E7FD2274FF72
:1009B200FCFDFEFF22E480F8A2D574FF13FC7D80CB
:0309C200E480EFDF
:0E09C500C3E49FFFE49EFEE49DFDE49CFC2243
:00000001FF
