:03000000020800F3
:0C080000787FE4F6D8FD758108020847F7
:080945007F5A7EA3DEFEDFFCF9
:01094D002287
:10088C001208CDE508B457081208E51208F680F3F3
:10089C00E508B453081208E512090780E6E508B428
:1008AC0041081208E512091880D9E508B444081269
:1008BC0008E512092980CCE508B454C71208E58074
:0108CC00C269
:1008E500D280D281D282D283D284D285D286D28757
:0108F50022E0
:1008F600C280D281D282C283C284D285D286C28786
:0109060022CE
:10090700D280C281C282D283D284C285C286D28774
:0109170022BD
:10091800C280D281D282C283D284C285C286D28763
:0109280022AC
:10092900D280C281C282D283C284D285D286C28752
:01093900229B
:030957000100009C
:0B093A00E59830E1FB5398FD8F9922F7
:1008CD00758920759850758DFD758BFD439802D2F5
:0808DD00ACD2AFD28ED2AF22E3
:0300230002094E81
:09094E00309805C2988599083221
:01095B002279
:10080C0002088CE493A3F8E493A34003F68001F26E
:10081C0008DFF48029E493A3F85407240CC8C333ED
:10082C00C4540F4420C8834004F456800146F6DFBC
:10083C00E4800B0102040810204080900957E47EEC
:10084C00019360BCA3FF543F30E509541FFEE493B1
:10085C00A360010ECF54C025E060A840B8E493A378
:10086C00FAE493A3F8E493A3C8C582C8CAC583CAA3
:10087C00F0A3C8C582C8CAC583CADFE9DEE780BE5B
:01095A00009C
:00000001FF
